{
  "abi": [
    {
      "type": "function",
      "name": "grantAccess",
      "inputs": [
        {
          "name": "provider",
          "type": "address",
          "internalType": "address"
        }
      ],
      "outputs": [],
      "stateMutability": "nonpayable"
    },
    {
      "type": "function",
      "name": "hasAccess",
      "inputs": [
        {
          "name": "patient",
          "type": "address",
          "internalType": "address"
        },
        {
          "name": "provider",
          "type": "address",
          "internalType": "address"
        }
      ],
      "outputs": [
        {
          "name": "",
          "type": "bool",
          "internalType": "bool"
        }
      ],
      "stateMutability": "view"
    },
    {
      "type": "function",
      "name": "revokeAccess",
      "inputs": [
        {
          "name": "provider",
          "type": "address",
          "internalType": "address"
        }
      ],
      "outputs": [],
      "stateMutability": "nonpayable"
    },
    {
      "type": "event",
      "name": "AccessGranted",
      "inputs": [
        {
          "name": "patient",
          "type": "address",
          "indexed": true,
          "internalType": "address"
        },
        {
          "name": "provider",
          "type": "address",
          "indexed": true,
          "internalType": "address"
        }
      ],
      "anonymous": false
    },
    {
      "type": "event",
      "name": "AccessRevoked",
      "inputs": [
        {
          "name": "patient",
          "type": "address",
          "indexed": true,
          "internalType": "address"
        },
        {
          "name": "provider",
          "type": "address",
          "indexed": true,
          "internalType": "address"
        }
      ],
      "anonymous": false
    }
  ],
  "bytecode": {
    "object": "0x6080604052348015600e575f5ffd5b5061043f8061001c5f395ff3fe608060405234801561000f575f5ffd5b506004361061003f575f3560e01c80630ae5e739146100435780631709ef071461005f57806385e685311461008f575b5f5ffd5b61005d6004803603810190610058919061036d565b6100ab565b005b61007960048036038101906100749190610398565b610197565b60405161008691906103f0565b60405180910390f35b6100a960048036038101906100a4919061036d565b610224565b005b60015f5f3373ffffffffffffffffffffffffffffffffffffffff1673ffffffffffffffffffffffffffffffffffffffff1681526020019081526020015f205f8373ffffffffffffffffffffffffffffffffffffffff1673ffffffffffffffffffffffffffffffffffffffff1681526020019081526020015f205f6101000a81548160ff0219169083151502179055508073ffffffffffffffffffffffffffffffffffffffff163373ffffffffffffffffffffffffffffffffffffffff167f9f520b3bfc56d06f7065d10b4683b3f57ac8895d5026cd176dee95ce1454cb8d60405160405180910390a350565b5f5f5f8473ffffffffffffffffffffffffffffffffffffffff1673ffffffffffffffffffffffffffffffffffffffff1681526020019081526020015f205f8373ffffffffffffffffffffffffffffffffffffffff1673ffffffffffffffffffffffffffffffffffffffff1681526020019081526020015f205f9054906101000a900460ff16905092915050565b5f5f5f3373ffffffffffffffffffffffffffffffffffffffff1673ffffffffffffffffffffffffffffffffffffffff1681526020019081526020015f205f8373ffffffffffffffffffffffffffffffffffffffff1673ffffffffffffffffffffffffffffffffffffffff1681526020019081526020015f205f6101000a81548160ff0219169083151502179055508073ffffffffffffffffffffffffffffffffffffffff163373ffffffffffffffffffffffffffffffffffffffff167f825c8be24eb0df19500f63e86c29e7d0d951e73056b889b891d85e40938d9b6e60405160405180910390a350565b5f5ffd5b5f73ffffffffffffffffffffffffffffffffffffffff82169050919050565b5f61033c82610313565b9050919050565b61034c81610332565b8114610356575f5ffd5b50565b5f8135905061036781610343565b92915050565b5f602082840312156103825761038161030f565b5b5f61038f84828501610359565b91505092915050565b5f5f604083850312156103ae576103ad61030f565b5b5f6103bb85828601610359565b92505060206103cc85828601610359565b9150509250929050565b5f8115159050919050565b6103ea816103d6565b82525050565b5f6020820190506104035f8301846103e1565b9291505056fea2646970667358221220d1cb24f5949e25fa55d87852cf5171c8dc8699c29ef63dd9554a52ec8c7cea3564736f6c634300081e0033",
    "linkReferences": {}
  },
  "methodIdentifiers": {
    "grantAccess(address)": "0ae5e739",
    "hasAccess(address,address)": "1709ef07",
    "revokeAccess(address)": "85e68531"
  },
  "id": 16
}