{"abi":[{"type":"function","name":"getRecords","inputs":[{"name":"patient","type":"address","internalType":"address"}],"outputs":[{"name":"","type":"string[]","internalType":"string[]"}],"stateMutability":"view"},{"type":"function","name":"storeRecord","inputs":[{"name":"patient","type":"address","internalType":"address"},{"name":"cid","type":"string","internalType":"string"}],"outputs":[],"stateMutability":"nonpayable"},{"type":"event","name":"RecordStored","inputs":[{"name":"patient","type":"address","indexed":true,"internalType":"address"},{"name":"uploader","type":"address","indexed":true,"internalType":"address"},{"name":"cid","type":"string","indexed":false,"internalType":"string"}],"anonymous":false}],"bytecode":{"object":"0x6080604052348015600e575f5ffd5b506108b78061001c5f395ff3fe608060405234801561000f575f5ffd5b5060043610610034575f3560e01c806395bc9c1214610038578063a0076e8414610054575b5f5ffd5b610052600480360381019061004d9190610338565b610084565b005b61006e60048036038101906100699190610395565b610165565b60405161007b91906104eb565b60405180910390f35b5f5f8473ffffffffffffffffffffffffffffffffffffffff1673ffffffffffffffffffffffffffffffffffffffff1681526020019081526020015f20828290918060018154018082558091505060019003905f5260205f20015f9091929091929091929091925091826100f8929190610748565b503373ffffffffffffffffffffffffffffffffffffffff168373ffffffffffffffffffffffffffffffffffffffff167f88d3f8c3a1219378b7e6f4c5c2fccce17fca605c0d958c2d828caf3673400c7a848460405161015892919061085f565b60405180910390a3505050565b60605f5f8373ffffffffffffffffffffffffffffffffffffffff1673ffffffffffffffffffffffffffffffffffffffff1681526020019081526020015f20805480602002602001604051908101604052809291908181526020015f905b8282101561026a578382905f5260205f200180546101df9061056f565b80601f016020809104026020016040519081016040528092919081815260200182805461020b9061056f565b80156102565780601f1061022d57610100808354040283529160200191610256565b820191905f5260205f20905b81548152906001019060200180831161023957829003601f168201915b5050505050815260200190600101906101c2565b505050509050919050565b5f5ffd5b5f5ffd5b5f73ffffffffffffffffffffffffffffffffffffffff82169050919050565b5f6102a68261027d565b9050919050565b6102b68161029c565b81146102c0575f5ffd5b50565b5f813590506102d1816102ad565b92915050565b5f5ffd5b5f5ffd5b5f5ffd5b5f5f83601f8401126102f8576102f76102d7565b5b8235905067ffffffffffffffff811115610315576103146102db565b5b602083019150836001820283011115610331576103306102df565b5b9250929050565b5f5f5f6040848603121561034f5761034e610275565b5b5f61035c868287016102c3565b935050602084013567ffffffffffffffff81111561037d5761037c610279565b5b610389868287016102e3565b92509250509250925092565b5f602082840312156103aa576103a9610275565b5b5f6103b7848285016102c3565b91505092915050565b5f81519050919050565b5f82825260208201905092915050565b5f819050602082019050919050565b5f81519050919050565b5f82825260208201905092915050565b8281835e5f83830152505050565b5f601f19601f8301169050919050565b5f61042b826103e9565b61043581856103f3565b9350610445818560208601610403565b61044e81610411565b840191505092915050565b5f6104648383610421565b905092915050565b5f602082019050919050565b5f610482826103c0565b61048c81856103ca565b93508360208202850161049e856103da565b805f5b858110156104d957848403895281516104ba8582610459565b94506104c58361046c565b925060208a019950506001810190506104a1565b50829750879550505050505092915050565b5f6020820190508181035f8301526105038184610478565b905092915050565b5f82905092915050565b7f4e487b71000000000000000000000000000000000000000000000000000000005f52604160045260245ffd5b7f4e487b71000000000000000000000000000000000000000000000000000000005f52602260045260245ffd5b5f600282049050600182168061058657607f821691505b60208210810361059957610598610542565b5b50919050565b5f819050815f5260205f209050919050565b5f6020601f8301049050919050565b5f82821b905092915050565b5f600883026105fb7fffffffffffffffffffffffffffffffffffffffffffffffffffffffffffffffff826105c0565b61060586836105c0565b95508019841693508086168417925050509392505050565b5f819050919050565b5f819050919050565b5f61064961064461063f8461061d565b610626565b61061d565b9050919050565b5f819050919050565b6106628361062f565b61067661066e82610650565b8484546105cc565b825550505050565b5f5f905090565b61068d61067e565b610698818484610659565b505050565b5b818110156106bb576106b05f82610685565b60018101905061069e565b5050565b601f821115610700576106d18161059f565b6106da846105b1565b810160208510156106e9578190505b6106fd6106f5856105b1565b83018261069d565b50505b505050565b5f82821c905092915050565b5f6107205f1984600802610705565b1980831691505092915050565b5f6107388383610711565b9150826002028217905092915050565b610752838361050b565b67ffffffffffffffff81111561076b5761076a610515565b5b610775825461056f565b6107808282856106bf565b5f601f8311600181146107ad575f841561079b578287013590505b6107a5858261072d565b86555061080c565b601f1984166107bb8661059f565b5f5b828110156107e2578489013582556001820191506020850194506020810190506107bd565b868310156107ff57848901356107fb601f891682610711565b8355505b6001600288020188555050505b50505050505050565b5f82825260208201905092915050565b828183375f83830152505050565b5f61083e8385610815565b935061084b838584610825565b61085483610411565b840190509392505050565b5f6020820190508181035f830152610878818486610833565b9050939250505056fea2646970667358221220288fc812b9f56568c2e85136b2418e75d091d5101807c74b75a83147c845ea4f64736f6c634300081e0033","linkReferences":{}},"methodIdentifiers":{"getRecords(address)":"a0076e84","storeRecord(address,string)":"95bc9c12"},"id":17}